:10000000B5C00000CFC00000CDC00000CBC00000D4
:10001000C9C00000C7C00000C5C00000C3C00000C8
:10002000C1C00000BFC00000BDC000002DC6000060
:10003000D5C60000B7C00000B5C00000B3C00000C6
:10004000B1C00000AFC0000079C20000ABC000002A
:10005000A9C00000A7C00000A5C000009DC200000C
:10006000A1C000009FC000009DC000009BC0000018
:1000700099C00000220343004400430020006100B7
:100080006E00640020004B006500790062006F0084
:1000900061007200640000002403460072006F00DB
:1000A0006D0020004C0055004600410020004C002F
:1000B00069006200720061007200790000000403B0
:1000C000090409025700030100C0320904000001BD
:1000D0000202010005240010010424020605240682
:1000E0000001070582030800FF09040100020A005D
:1000F0000000070504021000050705830210000533
:10010000090402000103010100092111010001227B
:1001100040000705810308000512011001000000DE
:1001200008EB03442001000102DC0105010906A1DE
:1001300001050719E029E7150025017501950881DA
:1001400002950175088101050819012905950575B4
:10015000019102950175039101150026FF00050725
:10016000190029FF950675088100C00011241FBEE3
:10017000CFEFD2E0DEBFCDBF11E0A0E0B1E0EAED0D
:10018000F8E102C005900D92A033B107D9F722E043
:10019000A0E3B1E001C01D92A938B207E1F71CD17C
:1001A0000C946B0C2DCF9B01FC018FB7F8947183DD
:1001B00060837383628375836483240F351F378361
:1001C000268351874087138612868FBF0895FC01CE
:1001D0002FB7F894828593852FBF0895FC01A081E5
:1001E000B1816C9380819181019691838083268176
:1001F00037818217930721F48481958191838083CD
:100200002FB7F894828593850196938782872FBFB5
:100210000895FC01A281B3818D91B383A2832681CD
:100220003781A217B30721F42481358133832283D8
:100230009FB7F8942285338521503109338722876F
:100240009FBF0895AF92BF92CF92DF92EF92FF923D
:100250000F931F93CF93DF93EC01C880D980E09078
:10026000E801F090E9010091E6011091E7010E1913
:100270001F09A090EC01B090ED0130913801209160
:10028000390140E0E22FF0E02C151D0428F03093F6
:100290003801209339011CC0C8018E0F9F1FB50182
:1002A0000E94180CD701A80FB91F8C912730E0F4D9
:1002B0002430F8F4211101C030E03827E55DFE4F0D
:1002C00090819817B9F040E03093380110923901CD
:1002D000842FDF91CF911F910F91FF90EF90DF90CE
:1002E000CF90BF90AF900895273061F1411102C0C7
:1002F000EBCF38272F5F41E0283021F630933801CB
:10030000209339011CEF8881998101979983888313
:1003100084EE91E07EDF082F133070F488E591E0E1
:1003200056DF20916001309161018217930721F01F
:10033000602F88E591E052DF1F5F143021F71092A3
:1003400039018BCF3813BFCFD5CFCF93DF9384B78D
:10035000877F84BF0FB6F894A8958091600088616C
:1003600080936000109260000FBE80E890E00FB6AE
:10037000F89480936100909361000FBE87E690E04F
:100380009093CD008093CC0086E08093CA001092B9
:10039000C800C9ECD0E088E18883539A5A9A8AB1A0
:1003A00080638AB98BB180638BB95FD4109285006A
:1003B00010928400B19A84E08093810091E0909340
:1003C0006F0093E095BD85BD5F9A579A88818068DC
:1003D0008883DF91CF91089500D0CDB7DEB78BB180
:1003E00080638BB9B2DF40E850E060EF71E080E7F6
:1003F00092E0D9DE40E850E064E671E084EE91E0FE
:10040000D2DE4EE150E06AE371E088E591E0CBDEB8
:100410007894F12CE12C80E1D82E80E792E0D7DEB1
:1004200020917802309179028217930749F080E198
:1004300091E01BD7BC0197FD03C080E792E0CEDEC0
:1004400084EE91E0C4DE9A838983CE010196FADEC0
:10045000882359F1A89A16BC8091C80085FF0EC068
:1004600080E792E0B4DE892B49F080E792E0D1DEAC
:100470009091C80095FFFCCF8093CE0080E191E081
:10048000DCD680E091E00E945B0B46D68FEFE81A45
:10049000F80A80E2E8168EE4F80608F4BECF8BB1C5
:1004A0008D258BB9F12CE12CB8CFA89905C0898195
:1004B0009A818136910580F2A89A16BC5F9B15C07F
:1004C00089819A819C01215031093A832983892BA2
:1004D00009F4C2CF84EE91E09CDE10923901CE0186
:1004E0000196B0DE882361F3B7CF8091E80080FFEA
:1004F000B3CF09811A810031110510F00FE010E02F
:100500000150110908F4A8CFE091E601F091E7014C
:10051000608180E191E03FD681119ECF84EE91E031
:1005200078DE1092390189819A8101979A838983B3
:10053000CE01019687DE882319F38ECF1F921FB656
:100540001F9211241092850010928400B19A1F907E
:100550001FBE1F9018950895089580E191E0F6D58B
:1005600080E091E00E94430BE2EEF0E08081846045
:100570008083089580E191E0A5D680E091E04DC7A9
:1005800080910E0190910F01009729F001979093AF
:100590000F0180930E0108951F920F920FB60F92D4
:1005A00011242F933F934F935F936F937F938F9378
:1005B0009F93AF93BF93CF93EF93FF93C091CE00E0
:1005C0005C9880918002843071F484EE91E0FFDDCC
:1005D0002091EC013091ED018217930721F06C2FEF
:1005E00084EE91E0FBDDFF91EF91CF91BF91AF9150
:1005F0009F918F917F916F915F914F913F912F913B
:100600000F900FBE0F901F901895FC01808980FFFE
:1006100003C05F985D9808955F9A5D9A08958F92E0
:100620009F92AF92BF92FF920F931F93CF93DF934E
:1006300000D000D00F92CDB7DEB78C01DC01599607
:100640008C9190E3F92E813029F020E2F22E823055
:1006500009F0F12CF801808D823011F46894F3F8E0
:10066000D8015A968C91873009F456C0883009F425
:1006700056C0863011F46894F1F85B9A1092C90064
:100680001092C8001092CA00F80124893589468961
:1006900057892115F1EE3F074105510509F443C083
:1006A00049015A01B694A79497948794D501C4013F
:1006B00080589B47A14EBF4F89839A83AB83BC83ED
:1006C000BC01CD010E942C0C215031093093CD008A
:1006D0002093CC00F092CA00F80184899589A689FC
:1006E000B7898115914EA105B10501F182E0809392
:1006F000C80088E98093C9005B980F900F900F9015
:100700000F900F90DF91CF911F910F91FF90BF90AD
:10071000AF909F908F9008956894F2F8AECFBF2D60
:10072000B660FB2EAACF20E130E0D0CF80E0DFCF53
:10073000EF92FF920F931F93CF93DF93E90178011C
:1007400088E591E044DD039760F088E591E061DDA4
:10075000888388E591E05DDD8A8388E591E059DD55
:100760008B8388E090E0F7019183808380E0DF91C4
:10077000CF911F910F91FF90EF90089508959C01E4
:10078000DA01832F992783309105B9F060F4813025
:100790009105C1F1029761F487E590E022EC30E029
:1007A0002D933C93089581329105E1F0829711F1E8
:1007B00090E080E030E020E0F3CFC90199272130BC
:1007C00059F08230910559F0EEEBF0E0892B81F77A
:1007D000849190E09F01E4CFE8E9F0E0F9CFE4E70D
:1007E000F0E0F6CF89E090E029E031E06230710579
:1007F000F9F6D6CF80E490E02BE231E0623071056B
:10080000B9F6CECF82E190E029E131E0C9CFAF92D5
:10081000BF92CF92DF92FF920F931F93CF93DF93FC
:100820006C01EB018A01B7D1F82E811123C00115AB
:10083000110539F0F80180819181C81BD90BC80ED0
:10084000D91EB12CA12C2097A9F08091E80085FD3C
:1008500021C08091E8008E778093E8000115110592
:10086000A1F0F80180819181A80EB91EB182A08209
:1008700085E0F82E8F2DDF91CF911F910F91FF9082
:10088000DF90CF90BF90AF90089585D18823D9F2A3
:10089000F82EF0CFF60181916F018093F10021973E
:1008A000FFEFAF1ABF0ACFCFFC01CB012091870227
:1008B000309188022617370790F0009729F420918D
:1008C000E8002E772093E80040E0009751F44111B2
:1008D00008C08091E80082FF30C080E00895C9011F
:1008E000F3CF209180022223A1F12530A1F12091A4
:1008F000E80023FD2CC02091E80022FDEACF2091E2
:10090000E80020FFE2CF2091F20030E0009719F0DC
:100910002830310558F041E02830310509F040E039
:100920002091E8002E772093E800CFCF41914093AB
:10093000F10001972F5F3F4FE9CF8091800288231C
:1009400041F0853041F08091E80083FFC2CF81E023
:10095000089582E0089583E00895FC01CB0100979B
:1009600029F42091E8002B772093E800009731F4D8
:100970008091E80080FF1AC080E0089520918002F5
:100980002223F1F02530C1F02091E80023FD16C0AC
:100990002091E80022FFEACF2091F200222309F300
:1009A0002091F10021930197B9F7DBCF809180026C
:1009B000882331F08530E1F683E0089581E00895E1
:1009C00082E00895FC01CB012091870230918802DA
:1009D0002617370790F0009729F42091E8002E772A
:1009E0002093E80040E0009751F4411108C0809145
:1009F000E80082FF31C080E00895C901F3CF209163
:100A000080022223A9F12530A9F12091E80023FDDD
:100A10002DC02091E80022FDEACF2091E80020FFC0
:100A2000E2CF2091F20030E0009719F02830310534
:100A300058F041E02830310509F040E02091E8000D
:100A40002E772093E800CFCF44914093F100319668
:100A500001972F5F3F4FE8CF80918002882341F0BC
:100A6000853041F08091E80083FFC1CF81E0089597
:100A700082E0089583E00895982F953028F08F70D4
:100A80008093E90081E008959093E900242F762F68
:100A900050E0981731F07091EC002091ED005091EA
:100AA000F00021FD02C09F5FE8CF3091EB003E7F58
:100AB0003093EB003091ED003D7F3093ED003091AD
:100AC000EB0031603093EB007093EC002093ED006D
:100AD0005093F0002091EE0027FDE5CF80E00895CF
:100AE0000F931F93CF93DF93162FEC0100E00113B8
:100AF00002C081E00BC02881211103C00F5F259641
:100B0000F6CF822F8F70853030F080E0DF91CF916B
:100B10001F910F9108959C8142E0923008F046E0C9
:100B2000E981FA8168E070E090E06E177F0780F05D
:100B30009295907F492B6B816295660F660F607C62
:100B4000221F2227221F622B97DF8111D7CFDDCFF3
:100B50009F5F660F771FE9CF8091810287FF13C0E7
:100B60008091E80082FF06C08091E8008B77809337
:100B7000E80004C0809180028111F2CF0895809135
:100B800080028823D9F38091E80080FFF8CF80911C
:100B9000E8008E77ECCF2091E4003091E50095E6F7
:100BA000A9012091EC00822F817020FF06C0809166
:100BB000E80080FF06C080E008952091E80022FD53
:100BC0001AC080918002882389F0853089F0809155
:100BD000EB0085FD0FC02091E4003091E500421745
:100BE0005307F9F29150E1F684E0089582E0089508
:100BF00083E0089581E0089541D043D08091D800EA
:100C00008F778093D8008091D80080688093D80037
:100C10008091D8008F7D8093D80084E089BD86E0E4
:100C200089BD09B400FEFDCF1092800210927C02B3
:100C300010927E0210927D0242E060E080E01CDFB4
:100C40008091E1008E7F8093E1008091E2008160DD
:100C50008093E2008091E20088608093E2008091BE
:100C6000E0008E7F8093E0000895E3E6F0E080816D
:100C70008E7F808381E080937F02BECF1092E2005E
:100C800008951092E10008951F920F920FB60F92EF
:100C900011242F933F934F935F936F937F938F9381
:100CA0009F93AF93BF93EF93FF938091E10082FFF7
:100CB0000AC08091E20082FF06C08091E1008B7F34
:100CC0008093E1005DDC8091E10080FF17C080919E
:100CD000E20080FF13C08091E2008E7F8093E200EB
:100CE0008091E20080618093E2008091D800806270
:100CF0008093D80019BC109280022EDC8091E10014
:100D000084FF28C08091E20084FF24C084E089BD74
:100D100086E089BD09B400FEFDCF8091D8008F7DAB
:100D20008093D8008091E1008F7E8093E1008091D4
:100D3000E2008F7E8093E2008091E20081608093E8
:100D4000E20080917C02882309F440C084E0809313
:100D5000800201DC8091E10083FF27C08091E200E6
:100D600083FF23C08091E100877F8093E10082E0D0
:100D70008093800210927C028091E1008E7F8093AC
:100D8000E1008091E2008E7F8093E2008091E2009A
:100D900080618093E20042E060E080E06DDE80915F
:100DA000F00088608093F000B6D1FF91EF91BF9181
:100DB000AF919F918F917F916F915F914F913F91F3
:100DC0002F910F900FBE0F901F9018958091E30008
:100DD00087FD02C081E0BBCF83E0B9CF1F920F92A5
:100DE0000FB60F9211242F933F934F935F936F93FE
:100DF0007F938F939F93AF93BF93CF93DF93EF93A3
:100E0000FF93D091E900DF708091EC00C82FC17092
:100E100080FDC0E81092E9008091F000877F809308
:100E2000F00078941ED01092E9008091F000886064
:100E30008093F000CD2BCF70C093E900FF91EF912C
:100E4000DF91CF91BF91AF919F918F917F916F91E2
:100E50005F914F913F912F910F900FBE0F901F9078
:100E600018951F93CF93DF93CDB7DEB7AA970FB630
:100E7000F894DEBF0FBECDBF81E892E0FC01019681
:100E80002091F100208322E089389207B9F772DBC4
:100E90008091E80083FF10C08091810290918202CE
:100EA000953009F4C2C000F5292F2D7F213009F4B7
:100EB00089C0992309F45EC08091E80083FF0AC0CD
:100EC0008091E800877F8093E8008091EB0080624A
:100ED0008093EB00AA960FB6F894DEBF0FBECDBF8D
:100EE000DF91CF911F910895983009F4D5C09930C2
:100EF00009F4DFC0963001F780588230E8F680911F
:100F00008302909184028C3D23E0920709F0AFC0E8
:100F100083E08A838AE289834FB7F894DE011396CF
:100F200020E03EE051E2E32FF0E050935700E491DF
:100F300020FF03C0E295EF703F5FEF708E2F90E0CF
:100F4000EA3008F492C0C7968D939D932F5F2431A9
:100F500051F74FBF8091E800877F8093E8006AE2F5
:100F600070E0CE010196A0DC8091E8008B77809341
:100F7000E800A2CF803899F0823809F09DCF8091A7
:100F800085028F70853008F097CF8093E9008091BB
:100F9000EB0085FB882780F91092E90006C080915C
:100FA0007D0290917E02911182609091E800977F7E
:100FB0009093E8008093F1001092F1008091E80096
:100FC0008E77A5C0882309F492C0823009F074CFCF
:100FD00080918302811196C0809185028F702FEFDE
:100FE000280F243008F068CF8093E9002091EB00AF
:100FF00020FF88C0933031F48091EB0080628093B1
:10100000EB0080C09091EB0090619093EB0021E0A9
:1010100030E001C0220F8A95EAF72093EA0010928F
:10102000EA008091EB008860EACF811145CF1091F2
:1010300083021F778091E3008078812B8093E30007
:101040008091E800877F8093E80086DD8091E8004A
:1010500080FFFCCF8091E30080688093E30082E012
:10106000111183E08093800227CFC0966DCF6091ED
:10107000850270918602AE014F5F5F4F80DBBC013D
:10108000892B09F419CF8091E800877F8093E800CD
:1010900089819A8197DC68CF803809F00DCF8091E3
:1010A000E800877F8093E80080917C028093F100C4
:1010B00085CF811101CF90918302923008F0FCCE50
:1010C0008091E800877F8093E80090937C0244DD64
:1010D00080917C02882311F084E005C08091E300B8
:1010E00087FDFACF81E08093800237DAE5CE8091E8
:1010F0008302813009F0E0CE81E0933009F080E096
:1011000080937E021092E9008091E800877F8093AF
:10111000E80022DDD1CE0895CF938091800288230C
:1011200099F0C091E900CF709091EC00892F817007
:1011300090FD80E8C82B1092E9008091E80083FDC3
:1011400090DECF70C093E900CF910895CF93DF93E5
:10115000EC01FC0170968BE0DF011D928A95E9F7A6
:1011600082E08C83898783E08E8761E0CE010196DF
:10117000B7DC882361F061E0CE010696B1DC8823FC
:1011800031F061E0CE010B96DF91CF91A9CC80E0E8
:10119000DF91CF910895CF93FC01C62F80918002FB
:1011A0008430F1F484899589A689B789892B8A2BA3
:1011B0008B2BB1F081818F708093E9008091E800E2
:1011C00085FF05C0C093F10080E0CF910895809124
:1011D000E8008E778093E800DEDC882399F3F5CF72
:1011E00082E0F3CFFC0180918002843021F5848974
:1011F0009589A689B789892B8A2B8B2BE1F0818170
:101200008F708093E9008091F200811102C080E02C
:1012100008959091E8008091E8008E778093E8002F
:1012200095FDF5CFB8DC811107C09091E8009E775D
:101230009093E800089582E00895FC018091800277
:10124000843091F484899589A689B789892B8A2B62
:101250008B2B51F081818F708093E9008091E800A1
:1012600080FF02C0CF01BECF0895FC0180918002B3
:10127000843019F08FEF9FEF089584899589A689AE
:10128000B789892B8A2B8B2BA9F386818F7080934A
:10129000E9008091E80082FFEDCF8091F200882381
:1012A00069F08091F10090E02091F200211105C0D9
:1012B0002091E8002B772093E80008958FEF9FEFAF
:1012C000F3CF0895CF93DF93EC018091E80083FF83
:1012D00013C02881809185029091860228171906F3
:1012E00059F480918202823209F482C040F4803243
:1012F00009F44CC08132A9F0DF91CF910895833277
:10130000D9F7809181028132B9F78091E800877F17
:101310008093E80021DC60918302CE01DF91CF91C0
:10132000D0CF80918102813A39F78091E800877FA0
:101330008093E8008091E80080FFFCCF8C899D8934
:10134000AE89BF898093F100492F5A2F6B2F7727E1
:101350004093F100AD01662777274093F1008B2F72
:101360009927AA27BB278093F100888D8093F100ED
:10137000898D8093F1008A8D8093F1008091E8003F
:101380008E778093E800DF91CF91E6CB8091810248
:10139000813209F0B1CF8091E800877F8093E80027
:1013A0008091E80082FF1FC03091F1002091F10090
:1013B0009091F1008091F1003C8B2D8B9E8B8F8B57
:1013C0008091F100888F8091F100898F8091F100E8
:1013D0008A8F8091E8008B778093E800BDDBCE0197
:1013E000DF91CF911CC9809180028111D9CF84CF28
:1013F00080918102813209F07FCF8091E800877F60
:101400008093E800A9DB8091830290918402998BFC
:10141000888BCE01DF91CF91F8C8AF92BF92CF9267
:10142000DF92EF92FF920F931F93CF93DF9300D041
:1014300000D000D00F92CDB7DEB77C018DB79EB73C
:101440009F838E838091E80083FF17C0F70120817E
:1014500080918502909186022817190671F4809177
:101460008202893009F48CC000F5823009F4F5C09D
:10147000833009F4BFC0813081F18E819F810FB626
:10148000F8949EBF0FBE8DBF27960FB6F894DEBFAF
:101490000FBECDBFDF91CF911F910F91FF90EF90C5
:1014A000DF90CF90BF90AF9008958A3009F4BBC011
:1014B0008B3019F7809181028132F9F68091E80032
:1014C000877F8093E80048DB9091830281E091114F
:1014D00001C080E0F7018187D0CF80918102813AFD
:1014E00061F68DB79EB79D838C831A821982809195
:1014F0008302109184028B838085482F50E08DB742
:101500009EB7841B950B0FB6F8949EBF0FBE8DBF80
:10151000EDB7FEB731966F0170E060E0CF01D4D136
:101520004FEF410F8E010F5F1F4F9601BE016D5FA0
:101530007F4FC701FDD8F70186819781009721F081
:10154000408550E0B601B7D11092E9008091E800E3
:10155000877F8093E8008B8181118093F1006981FE
:101560007A81C601A1D98091E8008B778093E80049
:101570008C819D810FB6F8949EBF0FBE8DBF7DCF2D
:1015800080918102813209F078CFEDB7FEB7FD83FB
:10159000EC830091870210918802B0908302A090A2
:1015A00084028DB79EB7801B910B0FB6F8949EBF37
:1015B0000FBE8DBFEDB7FEB731966F018091E80089
:1015C000877F8093E800B801CF01C7D98091E800F8
:1015D0008E778093E80021E0B11001C020E030E078
:1015E000021B130B2C0D3D1D4FEF4A0D6B2DC70138
:1015F000C5D8BECF80918102813A09F03ECF80915B
:10160000E800877F8093E8008091E80080FFFCCFAE
:10161000F70181858093F1008091E8008E778093B7
:10162000E8009ADA2ACF80918102813209F025CF31
:101630008091E800877F8093E8008EDA80918302B2
:101640009091840236E0969587953A95E1F78C7FE4
:101650009370F7019587848710CF80918102813A3A
:1016600009F00BCF8091E800877F8093E80080919C
:10167000E80080FFFCCFF7018485958596958795D6
:1016800096958795C7CFCF93DF93FC01DC011A961F
:1016900086E0ED0119928A95E9F781E0818784EF70
:1016A00091E09587848783E0848361E0CF01019690
:1016B000DF91CF9115CA9F92AF92BF92CF92DF92E6
:1016C000EF92FF920F931F93CF93DF9300D000D040
:1016D00000D00F92CDB7DEB77C018DB79EB79F8348
:1016E0008E8380918002843009F089C08091E4006B
:1016F0009091E500F701228533852817390709F411
:101700007EC081818F708093E9008091E80085FF21
:1017100076C08DB79EB79D838C83408550E0EDB732
:10172000FEB7E41BF50B0FB6F894FEBF0FBEEDBF7E
:101730008DB79EB701966C011B821A82198270E0E8
:1017400060E0C2D08E010F5F1F4F960140E0BE01E6
:101750006D5F7F4FC7010E949803982EF701848523
:101760009585892B29F011E086859785892B09F0CD
:1017700010E0F701A680B78000E0A114B10479F071
:1017800049815A81B501C60189D001E0892B09F44C
:1017900000E0F701408550E0B601C5018CD0898199
:1017A0009A81892BF1F0911004C0011102C010FF41
:1017B00018C0F701848595859787868781818F700A
:1017C0008093E9008B8181118093F10069817A8196
:1017D00050E040E0C6011BD88091E8008E778093EE
:1017E000E8008091E4009091E500F70193878287FB
:1017F0008C819D810FB6F8949EBF0FBE8DBFEE8188
:10180000FF810FB6F894FEBF0FBEEDBF27960FB64F
:10181000F894DEBF0FBECDBFDF91CF911F910F9126
:10182000FF90EF90DF90CF90BF90AF909F90089582
:10183000AA1BBB1B51E107C0AA1FBB1FA617B707F6
:1018400010F0A61BB70B881F991F5A95A9F7809512
:101850009095BC01CD010895A1E21A2EAA1BBB1BD5
:10186000FD010DC0AA1FBB1FEE1FFF1FA217B3076C
:10187000E407F50720F0A21BB30BE40BF50B661F82
:10188000771F881F991F1A9469F760957095809546
:1018900090959B01AC01BD01CF010895FB01DC01D6
:1018A00004C08D910190801921F441505040C8F737
:1018B000881B990B0895FB01DC0102C001900D9279
:1018C00041505040D8F70895DC0101C06D9341505C
:0A18D0005040E0F70895F894FFCFB0
:1018DA000281080000013001080000000000000039
:1018EA0000831000000104100000018208000001BA
:1018FA000000000000000000000000C06C57CC008F
:00000001FF
