:10000000B5C00000CFC00000CDC00000CBC00000D4
:10001000C9C00000C7C00000C5C00000C3C00000C8
:10002000C1C00000BFC00000BDC00000F1C700009B
:10003000B9C00000B7C00000B5C00000B3C00000E8
:10004000B1C00000AFC00000CCC20000ABC00000D7
:10005000A9C00000A7C00000A5C0000064C3000044
:10006000A1C000009FC000009DC000009BC0000018
:1000700099C00000220343004400430020006100B7
:100080006E00640020004B006500790062006F0084
:1000900061007200640000002403460072006F00DB
:1000A0006D0020004C0055004600410020004C002F
:1000B00069006200720061007200790000000403B0
:1000C000090409025700030100C0320904000001BD
:1000D0000202010005240010010424020605240682
:1000E0000001070582030800FF09040100020A005D
:1000F0000000070504021000050705830210000533
:10010000090402000103010100092111010001227B
:1001100040000705810308000512011001000000DE
:1001200008EB03442001000102DC0105010906A1DE
:1001300001050719E029E7150025017501950881DA
:1001400002950175088101050819012905950575B4
:10015000019102950175039101150026FF00050725
:10016000190029FF950675088100C00011241FBEE3
:10017000CFEFD2E0DEBFCDBF11E0A0E0B1E0EEEC0A
:10018000FBE102C005900D92A033B107D9F722E040
:10019000A0E3B1E001C01D92AB38B207E1F76AD12C
:1001A0000C94E50D2DCF9B01FC018FB7F894718362
:1001B00060837383628375836483240F351F378361
:1001C000268351874087138612868FBF0895FC01CE
:1001D0002FB7F894828593852FBF0895FC01A081E5
:1001E000B1816C9380819181019691838083268176
:1001F00037818217930721F48481958191838083CD
:100200002FB7F894828593850196938782872FBFB5
:100210000895FC01A281B3818D91B383A2832681CD
:100220003781A217B30721F42481358133832283D8
:100230009FB7F8942285338521503109338722876F
:100240009FBF0895AF92BF92CF92DF92EF92FF923D
:100250000F931F93CF93DF93EC01C880D980E09078
:10026000EA01F090EB010091E8011091E9010E190B
:100270001F09A090EE01B090EF013091390120915B
:100280003A0140E0E22FF0E02C151D0428F03093F5
:10029000390120933A011CC0C8018E0F9F1FB50180
:1002A0000E94920DD701A80FB91F8C912730E0F45E
:1002B0002430F8F4211101C030E03827E55DFE4F0D
:1002C00090819817B9F040E03093390110923A01CB
:1002D000842FDF91CF911F910F91FF90EF90DF90CE
:1002E000CF90BF90AF900895273061F1411102C0C7
:1002F000EBCF38272F5F41E0283021F630933901CA
:1003000020933A011CEF8881998101979983888312
:1003100086EE91E07EDF082F133070F489E591E0DE
:1003200056DF20916101309162018217930721F01D
:10033000602F89E591E052DF1F5F143021F71092A2
:100340003A018BCF3813BFCFD5CF84B7877F84BF17
:100350000FB6F894A8958091600088618093600042
:10036000109260000FBE80E890E00FB6F894809382
:100370006100909361000FBE80E190E09093CD000A
:100380008093CC0086E08093CA0082E08093C8000E
:1003900088E18093C900539A5A9A8AB180638AB9D6
:1003A0008BB180638BB98091C80085FFFCCF8091B1
:1003B000C80080648093C80083E58093CE0080915C
:1003C000C80086FFFCCF8091C80085FFFCCF8091DC
:1003D000C80080648093C80084E58093CE0080913B
:1003E000C80086FFFCCF8091C80085FFFCCF8091BC
:1003F000C80080648093C80081E48093CE0080911F
:10040000C80086FFFCCF8091C80085FFFCCF80919B
:10041000C80080648093C80082E58093CE008091FC
:10042000C80086FFFCCF8091C80085FFFCCF80917B
:10043000C80080648093C80084E58093CE008091DA
:10044000C80086FFFCCFD5D510928500109284009D
:10045000B19A84E08093810091E090936F0093E0E3
:1004600095BD85BD5F9A579A8091C9008068809339
:10047000C900089500D0CDB7DEB78BB180638BB9CA
:1004800064DF40E850E062EF71E082E792E08BDEEB
:1004900040E850E066E671E086EE91E084DE4EE1F1
:1004A00050E06BE371E089E591E07DDE7894F12C1A
:1004B000E12C80E1D82E82E792E089DE20917A0259
:1004C00030917B028217930751F080E191E00E9406
:1004D000B00ABC0197FD03C082E792E07FDE86EEA2
:1004E00091E075DE9A838983CE010196ABDE882385
:1004F00059F1A89A16BC8091C80085FF0FC082E709
:1005000092E065DE892B51F082E792E082DE9091E5
:10051000C80095FFFCCF8093CE005D9880E191E00C
:100520000E94980A80E091E00E94D60C70D78FEF6D
:10053000E81AF80A80E2E8168EE4F80608F4BBCF61
:10054000D9B8F12CE12CB7CFA89905C089819A813F
:100550008136910580F2A89A16BC5F9904C08091FB
:1005600082028430A9F089819A819C01215031094D
:100570003A832983892B09F4BECF86EE91E049DEC8
:1005800010923A01CE0101965DDE882361F3B3CF6C
:100590008091E80080FFAFCF09811A8100311105F9
:1005A00010F00FE010E00150110908F4A4CFE09121
:1005B000E801F091E901608180E191E067D7811164
:1005C0009ACF86EE91E025DE10923A0189819A81D8
:1005D00001979A838983CE01019634DE882319F32B
:1005E0008ACF1F921FB61F9211248F9310928500FD
:1005F00010928400B19A809165018F5F80936501AC
:1006000080913001882331F0815080933001811135
:1006100001C05D9A8F911F901FBE1F901895809109
:10062000C80085FFFCCF8091C80080648093C8001B
:100630008FE68093CE008091C80086FFFCCF08959E
:100640008091C80085FFFCCF8091C80080648093B2
:10065000C80084E48093CE008091C80086FFFCCF60
:1006600008958091C80085FFFCCF8091C800806408
:100670008093C80083E48093CE008091C80086FFF9
:10068000FCCF80E091E00E94BE0C80E191E0D9D6E1
:100690008091E20084608093E20008958091C80018
:1006A00085FFFCCF8091C80080648093C80083E6FA
:1006B0008093CE008091C80086FFFCCF909183028A
:1006C0008091C80085FFFCCF8091C8008064809332
:1006D000C8009093CE008091C80086FFFCCF909117
:1006E00084028091C80085FFFCCF8091C80080649F
:1006F0008093C8009093CE008091C80086FFFCCF05
:1007000080E091E00E94880B80E191E056C78091E3
:100710000E0190910F01009729F0019790930F011E
:1007200080930E0108951F920F920FB60F9211241D
:100730002F933F934F935F936F937F938F939F93E9
:10074000AF93BF93CF93EF93FF93C091CE005C988C
:1007500080918202843071F486EE91E038DD209140
:10076000EE013091EF018217930721F06C2F86EE96
:1007700091E034DDFF91EF91CF91BF91AF919F91C7
:100780008F917F916F915F914F913F912F910F903A
:100790000FBE0F901F901895FC018091C80085FF37
:1007A000FCCF8091C80080648093C8008CE6809361
:1007B000CE008091C80086FFFCCF808980FF02C0F8
:1007C0005F9808955F9A08958F929F92AF92BF921B
:1007D000FF920F931F93CF93DF9300D000D00F921F
:1007E000CDB7DEB78C018091C80085FFFCCF80912A
:1007F000C80080648093C8008CE48093CE00809110
:10080000C80086FFFCCFD80159968C9190E3F92E51
:10081000813029F020E2F22E823009F0F12CF8012B
:10082000808D823011F46894F3F8D8015A968C9137
:10083000873009F424C1883009F424C1863011F4CA
:100840006894F1F89091CA008091C80085FFFCCFB0
:100850008091C80080648093C8009093CE008091FE
:10086000C80086FFFCCF8091C80085FFFCCF809137
:10087000C80080648093C800F092CE008091C800C8
:1008800086FFFCCFF80195898091C80085FFFCCFD9
:100890008091C80080648093C8009093CE008091BE
:1008A000C80086FFFCCFD80154969C918091C80067
:1008B00085FFFCCF8091C80080648093C80090932E
:1008C000CE008091C80086FFFCCF9091CD00809132
:1008D000C80085FFFCCF8091C80080648093C80069
:1008E0009093CE008091C80086FFFCCF9091CC0001
:1008F0008091C80085FFFCCF8091C8008064809300
:10090000C8009093CE008091C80086FFFCCFF8010C
:1009100024893589468957892115F1EE3F0741051C
:10092000510509F4B3C049015A01B694A7949794AC
:100930008794D501C40180589B47A14EBF4F89833E
:100940009A83AB83BC83BC01CD010E94A60D2150CC
:100950003109932F8091C80085FFFCCF8091C8009A
:1009600080648093C8009093CE008091C80086FF79
:10097000FCCF922F8091C80085FFFCCF8091C800EA
:1009800080648093C8009093CE008091C80086FF59
:10099000FCCF9091C8008091C80085FFFCCF80916A
:1009A000C80080648093C8009093CE008091C800F6
:1009B00086FFFCCFF80184899589A689B7898115BE
:1009C000914EA105B10509F464C082E09091C80080
:1009D00095FFFCCF9091C80090649093C8008093DD
:1009E000CE009091C80096FFFCCF9091C80095FF73
:1009F000FCCF9091C80090649093C8009AE29093C5
:100A0000CE009091C80096FFFCCFF894539A5B9A61
:100A10001092C9001092C8001092CA003093CD0005
:100A20002093CC00F092CA008093C80088E18093A4
:100A3000C9005B988091C80085FFFCCF8091C800F9
:100A400080648093C80089E48093CE008091C800C0
:100A500086FFFCCF8091C90080688093C90078949C
:100A60000F900F900F900F900F90DF91CF911F91EB
:100A70000F91FF90BF90AF909F908F9008956894D2
:100A8000F2F8E0CEBF2DB660FB2EDCCE20E130E0E8
:100A900060CF80E09BCFEF92FF920F931F93CF9395
:100AA000DF93E901780189E591E091DB039760F03C
:100AB00089E591E0AEDB888389E591E0AADB8A8352
:100AC00089E591E0A6DB8B8388E090E0F7019183D4
:100AD000808380E0DF91CF911F910F91FF90EF9085
:100AE00008958091C80085FFFCCF8091C800806484
:100AF0008093C80080E58093CE008091C80086FF77
:100B0000FCCF08959C01DA01832F9927833091054A
:100B1000B9F060F481309105C1F1029761F487E585
:100B200090E022EC30E02D933C93089581329105C2
:100B3000E1F0829711F190E080E030E020E0F3CF27
:100B4000C9019927213059F08230910559F0EEEB17
:100B5000F0E0892B81F7849190E09F01E4CFE8E9F0
:100B6000F0E0F9CFE4E7F0E0F6CF89E090E029E0AB
:100B700031E062307105F9F6D6CF80E490E02BE2E7
:100B800031E062307105B9F6CECF82E190E029E123
:100B900031E0C9CFAF92BF92CF92DF92FF920F9315
:100BA0001F93CF93DF936C01EB018A01B8D1F82E2C
:100BB000811124C00115110539F0F801808191815E
:100BC000C81BD90BC80ED91EB12CA12C2097B1F08F
:100BD0008091E80085FD22C08091E8008E778093A7
:100BE000E80015D401151105A1F0F801808191816B
:100BF000A80EB91EB182A08285E0F82E8F2DDF915C
:100C0000CF911F910F91FF90DF90CF90BF90AF9049
:100C1000089585D18823D1F2F82EF0CFF601819185
:100C20006F018093F1002197FFEFAF1ABF0ACECF7B
:100C3000FC01CB012091890230918A0226173707E7
:100C400090F0009729F42091E8002E772093E80097
:100C500040E0009751F4411108C08091E80082FF04
:100C600030C080E00895C901F3CF20918202222391
:100C7000A1F12530A1F12091E80023FD2CC02091A5
:100C8000E80022FDEACF2091E80020FFE2CF20918A
:100C9000F20030E0009719F02830310558F041E0BB
:100CA0002830310509F040E02091E8002E772093AC
:100CB000E800CFCF41914093F10001972F5F3F4F64
:100CC000E9CF80918202882341F0853041F0809104
:100CD000E80083FFC2CF81E0089582E0089583E0B9
:100CE0000895FC01CB01009729F42091E8002B77AF
:100CF0002093E800009731F48091E80080FF1AC04B
:100D000080E00895209182022223F1F02530C1F085
:100D10002091E80023FD16C02091E80022FFEACFD1
:100D20002091F200222309F32091F10021930197F1
:100D3000B9F7DBCF80918202882331F08530E1F66C
:100D400083E0089581E0089582E00895FC01CB01DD
:100D50002091890230918A022617370790F0009778
:100D600029F42091E8002E772093E80040E00097D6
:100D700051F4411108C08091E80082FF31C080E049
:100D80000895C901F3CF209182022223A9F12530D1
:100D9000A9F12091E80023FD2DC02091E80022FD5B
:100DA000EACF2091E80020FFE2CF2091F20030E06E
:100DB000009719F02830310558F041E0283031050E
:100DC00009F040E02091E8002E772093E800CFCF93
:100DD00044914093F100319601972F5F3F4FE8CF48
:100DE00080918202882341F0853041F08091E800B3
:100DF00083FFC1CF81E0089582E0089583E00895E4
:100E0000982F953028F08F708093E90081E0089545
:100E10009093E900242F762F50E0981731F07091CD
:100E2000EC002091ED005091F00021FD02C09F5F89
:100E3000E8CF3091EB003E7F3093EB003091ED0036
:100E40003D7F3093ED003091EB0031603093EB004B
:100E50007093EC002093ED005093F0002091EE0091
:100E600027FDE5CF80E008950F931F93CF93DF9385
:100E7000162FEC0100E0011302C081E00BC02881B5
:100E8000211103C00F5F2596F6CF822F8F7085301A
:100E900030F080E0DF91CF911F910F9108959C81F8
:100EA00042E0923008F046E0E981FA8168E070E0C3
:100EB00090E06E177F0780F09295907F492B6B81B1
:100EC0006295660F660F607C221F2227221F622B0D
:100ED00097DF8111D7CFDDCF9F5F660F771FE9CFF7
:100EE0008091830287FF13C08091E80082FF06C0D3
:100EF0008091E8008B778093E80004C080918202A3
:100F00008111F2CF0895809182028823D9F38091D4
:100F1000E80080FFF8CF8091E8008E77ECCF209139
:100F2000E4003091E50095E6A9012091EC00822FC4
:100F3000817020FF06C08091E80080FF06C080E03D
:100F400008952091E80022FD1AC080918202882332
:100F500089F0853089F08091EB0085FD0FC02091EC
:100F6000E4003091E50042175307F9F29150E1F6A1
:100F700084E0089582E0089583E0089581E0089573
:100F800041D043D08091D8008F778093D800809152
:100F9000D80080688093D8008091D8008F7D80939E
:100FA000D80084E089BD86E089BD09B400FEFDCF8C
:100FB0001092820210927E021092800210927F02A2
:100FC00042E060E080E01CDF8091E1008E7F809352
:100FD000E1008091E20081608093E2008091E20074
:100FE00088608093E2008091E0008E7F8093E00033
:100FF0000895E3E6F0E080818E7F808381E0809336
:101000008102BECF1092E20008951092E10008958F
:101010001F920F920FB60F9211242F933F934F936D
:101020005F936F937F938F939F93AF93BF93EF9350
:10103000FF938091E10082FF0AC08091E20082FF6D
:1010400006C08091E1008B7F8093E10060DB80919E
:10105000E10080FF17C08091E20080FF13C0809103
:10106000E2008E7F8093E2008091E20080618093B5
:10107000E2008091D80080628093D80019BC109261
:101080008202DEDA8091E10084FF27C08091E200D5
:1010900084FF23C084E089BD86E089BD09B400FED9
:1010A000FDCF8091D8008F7D8093D8008091E100A2
:1010B0008F7E8093E1008091E2008F7E8093E2003A
:1010C0008091E20081608093E20080917E0288231B
:1010D000D9F184E080938202A2DA8091E10083FF5B
:1010E00022C08091E20083FF1EC08091E100877FD3
:1010F0008093E10082E08093820210927E028091D0
:10110000E1008E7F8093E1008091E2008E7F8093EA
:10111000E2008091E20080618093E20042E060E0C2
:1011200080E06EDE73D1FF91EF91BF91AF919F91FF
:101130008F917F916F915F914F913F912F910F9080
:101140000FBE0F901F9018958091E30087FD02C09D
:1011500081E0C0CF83E0BECF1F93CF93DF93CDB7A5
:10116000DEB7AA970FB6F894DEBF0FBECDBF83E8F7
:1011700092E0FC0101962091F100208322E08B385F
:101180009207B9F78BDA8091E80083FF10C0809155
:10119000830290918402953009F4C2C000F5292F92
:1011A0002D7F213009F489C0992309F45EC0809114
:1011B000E80083FF0AC08091E800877F8093E80001
:1011C0008091EB0080628093EB00AA960FB6F894B2
:1011D000DEBF0FBECDBFDF91CF911F910895983034
:1011E00009F4D5C0993009F4DFC0963001F7805872
:1011F0008230E8F680918502909186028C3D23E052
:10120000920709F0AFC083E08A838AE289834FB7EF
:10121000F894DE01139620E03EE051E2E32FF0E087
:1012200050935700E49120FF03C0E295EF703F5FB9
:10123000EF708E2F90E0EA3008F492C0C7968D933D
:101240009D932F5F243151F74FBF8091E800877F36
:101250008093E8006AE270E0CE010196E9DC8091BB
:10126000E8008B778093E800A2CF803899F082382D
:1012700009F09DCF809187028F70853008F097CF5D
:101280008093E9008091EB0085FB882780F910921C
:10129000E90006C080917F029091800291118260E6
:1012A0009091E800977F9093E8008093F10010926E
:1012B000F1008091E8008E77A5C0882309F492C0E0
:1012C000823009F074CF80918502811196C080919F
:1012D00087028F702FEF280F243008F068CF80939B
:1012E000E9002091EB0020FF88C0933031F4809119
:1012F000EB0080628093EB0080C09091EB009061E6
:101300009093EB0021E030E001C0220F8A95EAF7CC
:101310002093EA001092EA008091EB008860EACF07
:10132000811145CF109185021F778091E30080786D
:10133000812B8093E3008091E800877F8093E80011
:10134000CFDD8091E80080FFFCCF8091E3008068D2
:101350008093E30082E0111183E08093820227CF23
:10136000C0966DCF6091870270918802AE014F5F89
:101370005F4FC8DBBC01892B09F419CF8091E800CD
:10138000877F8093E80089819A81E0DC68CF80388C
:1013900009F00DCF8091E800877F8093E80080916D
:1013A0007E028093F10085CF811101CF909185025B
:1013B000923008F0FCCE8091E800877F8093E800AF
:1013C00090937E028DDD80917E02882311F084E06F
:1013D00005C08091E30087FDFACF81E0809382020F
:1013E00040D9E5CE80918502813009F0E0CE81E0E0
:1013F000933009F080E0809380021092E9008091A0
:10140000E800877F8093E8006BDDD1CE0895CF930D
:1014100080918202882399F0C091E900CF70909169
:10142000EC00892F817090FD80E8C82B1092E900B4
:101430008091E80083FD90DECF70C093E900CF91EA
:101440000895CF93DF93EC01FC0170968BE0DF01F0
:101450001D928A95E9F782E08C83898783E08E87E5
:1014600061E0CE01019600DD882361F061E0CE01EC
:101470000696FADC882331F061E0CE010B96DF910D
:10148000CF91F2CC80E0DF91CF910895CF93FC0112
:10149000C62F809182028430F1F484899589A689CF
:1014A000B789892B8A2B8B2BB1F081818F70809328
:1014B000E9008091E80085FF05C0C093F10080E05D
:1014C000CF9108958091E8008E778093E80027DD22
:1014D000882399F3F5CF82E0F3CFFC01809182025B
:1014E000843021F584899589A689B789892B8A2B2F
:1014F0008B2BE1F081818F708093E9008091F20065
:10150000811102C080E008959091E8008091E80088
:101510008E778093E80095FDF5CF01DD811107C03E
:101520009091E8009E779093E800089582E00895F6
:10153000FC0180918202843091F484899589A68986
:10154000B789892B8A2B8B2B51F081818F708093E7
:10155000E9008091E80080FF02C0CF01BECF08956E
:10156000FC0180918202843019F08FEF9FEF089583
:1015700084899589A689B789892B8A2B8B2BA9F316
:1015800086818F708093E9008091E80082FFEDCF23
:101590008091F200882369F08091F10090E0209121
:1015A000F200211105C02091E8002B772093E8007C
:1015B00008958FEF9FEFF3CF0895CF93DF93EC0162
:1015C0008091E80083FF13C0288180918702909169
:1015D00088022817190659F480918402823209F48E
:1015E00082C040F4803209F44CC08132A9F0DF910E
:1015F000CF9108958332D9F7809183028132B9F770
:101600008091E800877F8093E8006ADC6091850222
:10161000CE01DF91CF91D0CF80918302813A39F70B
:101620008091E800877F8093E8008091E80080FF48
:10163000FCCF8C899D89AE89BF898093F100492FA9
:101640005A2F6B2F77274093F100AD01662777273C
:101650004093F1008B2F9927AA27BB278093F10095
:10166000888D8093F100898D8093F1008A8D80931D
:10167000F1008091E8008E778093E800DF91CF91B0
:101680002FCC80918302813209F0B1CF8091E800A4
:10169000877F8093E8008091E80082FF1FC030912F
:1016A000F1002091F1009091F1008091F1003C8BCC
:1016B0002D8B9E8B8F8B8091F100888F8091F10014
:1016C000898F8091F1008A8F8091E8008B778093D9
:1016D000E80006DCCE01DF91CF9176C880918202CE
:1016E0008111D9CF84CF80918302813209F07FCFDD
:1016F0008091E800877F8093E800F2DB809185028B
:1017000090918602998B888BCE01DF91CF9144C84E
:10171000AF92BF92CF92DF92EF92FF920F931F93FF
:10172000CF93DF9300D000D000D00F92CDB7DEB7BB
:101730007C018DB79EB79F838E838091E80083FFE5
:1017400017C0F701208180918702909188022817A5
:10175000190671F480918402893009F48CC000F577
:10176000823009F4F5C0833009F4BFC0813081F1C3
:101770008E819F810FB6F8949EBF0FBE8DBF2796B6
:101780000FB6F894DEBF0FBECDBFDF91CF911F9192
:101790000F91FF90EF90DF90CF90BF90AF900895A2
:1017A0008A3009F4BBC08B3019F7809183028132F3
:1017B000F9F68091E800877F8093E80091DB9091B3
:1017C000850281E0911101C080E0F7018187D0CFCF
:1017D00080918302813A61F68DB79EB79D838C8399
:1017E0001A82198280918502109186028B838085EE
:1017F000482F50E08DB79EB7841B950B0FB6F89419
:101800009EBF0FBE8DBFEDB7FEB731966F0170E082
:1018100060E0CF01D3D14FEF410F8E010F5F1F4F1B
:101820009601BE016D5F7F4FC70135D9F7018681F3
:101830009781009721F0408550E0B601B6D1109213
:10184000E9008091E800877F8093E8008B81811117
:101850008093F10069817A81C601EAD98091E8001C
:101860008B778093E8008C819D810FB6F8949EBFA2
:101870000FBE8DBF7DCF80918302813209F078CF7A
:10188000EDB7FEB7FD83EC830091890210918A02C7
:10189000B0908502A09086028DB79EB7801B910BF9
:1018A0000FB6F8949EBF0FBE8DBFEDB7FEB7319651
:1018B0006F018091E800877F8093E800B801CF0135
:1018C00010DA8091E8008E778093E80021E0B11073
:1018D00001C020E030E0021B130B2C0D3D1D4FEF2B
:1018E0004A0D6B2DC701FDD8BECF80918302813A8E
:1018F00009F03ECF8091E800877F8093E8008091D7
:10190000E80080FFFCCFF70181858093F100809192
:10191000E8008E778093E800E3DA2ACF8091830293
:10192000813209F025CF8091E800877F8093E8001D
:10193000D7DA809185029091860236E09695879558
:101940003A95E1F78C7F9370F7019587848710CFE4
:1019500080918302813A09F00BCF8091E800877F64
:101960008093E8008091E80080FFFCCFF701848538
:1019700095859695879596958795C7CFCF93DF9355
:10198000FC01DC011A9686E0ED0119928A95E9F7CF
:1019900081E0818784EF91E09587848783E0848369
:1019A00061E0CF010196DF91CF915ECA9F92AF9225
:1019B000BF92CF92DF92EF92FF920F931F93CF933C
:1019C000DF9300D000D000D00F92CDB7DEB77C01FE
:1019D0008DB79EB79F838E8380918202843009F0F9
:1019E00088C08091E4009091E500F701228533855D
:1019F0002817390709F47DC081818F708093E90031
:101A00008091E80085FF75C08DB79EB79D838C835C
:101A1000408550E0EDB7FEB7E41BF50B0FB6F89428
:101A2000FEBF0FBEEDBF8DB79EB701966C011B8246
:101A30001A82198270E060E0C1D08E010F5F1F4FE3
:101A4000960140E0BE016D5F7F4FC70124D8982EFC
:101A5000F70184859585892B29F011E08685978586
:101A6000892B09F010E0F701A680B78000E0A114EF
:101A7000B10479F049815A81B501C60189D001E0EC
:101A8000892B09F400E0F701408550E0B601C5015B
:101A90008CD089819A81892BF1F0911004C00111B9
:101AA00002C010FF18C0F701848595859787868747
:101AB00081818F708093E9008B8181118093F10087
:101AC00069817A8150E040E0C60164D88091E800E5
:101AD0008E778093E8008091E4009091E500F70113
:101AE000938782878C819D810FB6F8949EBF0FBE2D
:101AF0008DBFEE81FF810FB6F894FEBF0FBEEDBF24
:101B000027960FB6F894DEBF0FBECDBFDF91CF9101
:101B10001F910F91FF90EF90DF90CF90BF90AF900B
:101B20009F900895AA1BBB1B51E107C0AA1FBB1FB2
:101B3000A617B70710F0A61BB70B881F991F5A9559
:101B4000A9F780959095BC01CD010895A1E21A2EC8
:101B5000AA1BBB1BFD010DC0AA1FBB1FEE1FFF1F51
:101B6000A217B307E407F50720F0A21BB30BE40BA1
:101B7000F50B661F771F881F991F1A9469F76095E8
:101B80007095809590959B01AC01BD01CF010895A2
:101B9000FB01DC0104C08D910190801921F44150BA
:101BA0005040C8F7881B990B0895FB01DC0102C067
:101BB00001900D9241505040D8F70895DC0101C0CA
:0E1BC0006D9341505040E0F70895F894FFCF28
:101BCE000281080000013101080000000000000041
:101BDE0000831000000104100000018208000001C3
:101BEE000000000000000000000000C06C57CC0098
:00000001FF
